:100000000C9434000C9451000C9451000C94510049
:100010000C9451000C9451000C9451000C9453001A
:100020000C9451000C9451000C9451000C9451000C
:100030000C9451000C9451000C9451000C945100FC
:100040000C9451000C9451000C9451000C945100EC
:100050000C9451000C9451000C9451000C945100DC
:100060000C9451000C94510011241FBECFEFD8E026
:10007000DEBFCDBF11E0A0E0B1E0E0E6F4E002C0F9
:1000800005900D92A630B107D9F721E0A6E0B1E0C6
:1000900001C01D92AC30B207E1F70E940C020C9433
:1000A0002E020C9400001F920F920FB60F92112493
:1000B0002F934F935F936F937F938F939F93AF9300
:1000C000BF938091060190910001891369C18091CD
:1000D0000B01813021F0843009F4AEC05EC1809103
:1000E000070181115AC188B1816088B980910901E5
:1000F00090910A01A0E0B0E040910101509102010D
:10010000609103017091040184179507A607B70752
:1001100098F420910801222379F085B1816085B996
:10012000109208018091090190910A010196909323
:100130000A01809309011FC0409101015091020101
:10014000609103017091040184179507A607B70712
:1001500090F48091080181110EC085B115B881E03D
:10016000809308018091090190910A010196909372
:100170000A01809309018091090190910A01883E4A
:1001800023E0920720F422E12093000137C0803B56
:1001900024E0920720F42CE0209300012FC0883740
:1001A00025E0920720F428E02093000127C0803446
:1001B00026E0920720F427E0209300011FC088303A
:1001C00027E0920720F426E02093000117C0803D2D
:1001D00027E0920720F425E0209300010FC0883922
:1001E00028E0920720F424E02093000107C0813624
:1001F0002DE6920718F02BE020930001A0E0B0E07C
:10020000409101015091020160910301709104013C
:1002100084179507A607B70709F0BFC010920A0117
:10022000109209018AE080930B0181E0809307011D
:1002300086E080930001B1C080910701882309F412
:10024000ACC088B118B88091090190910A01A0E072
:10025000B0E0409101015091020160910301709161
:10026000040184179507A607B70798F420910801A1
:10027000222379F085B1816085B9109208018091BF
:10028000090190910A01019690930A018093090156
:100290001FC04091010150910201609103017091D2
:1002A000040184179507A607B70790F48091080109
:1002B00081110EC085B115B881E08093080180914D
:1002C000090190910A01019690930A018093090116
:1002D0008091090190910A01883E23E0920720F461
:1002E00022E12093000137C0803B24E0920720F4F4
:1002F0002CE0209300012FC0883725E0920720F4DE
:1003000028E02093000127C0803426E0920720F4E3
:1003100027E0209300011FC0883027E0920720F4D7
:1003200026E02093000117C0803D27E0920720F4CB
:1003300025E0209300010FC0883928E0920720F4BF
:1003400024E02093000107C081362DE6920718F0C3
:100350002BE020930001A0E0B0E04091010150911A
:100360000201609103017091040184179507A607AB
:10037000B70761F410920A01109209018AE0809394
:100380000B011092070188B1886088B9809107013C
:10039000811103C088B1886088B91092060103C03A
:1003A0008F5F80930601BF91AF919F918F917F9155
:1003B0006F915F914F912F910F900FBE0F901F90F3
:1003C000189584B1836284B987B1816087B98AB195
:1003D0008C638AB915B888B1886088B908958BB1E3
:1003E00080628BB9089584B584BD85B5816085BD73
:1003F0000895E0EBF0E0808182608083E1EBF0E043
:10040000808181608083E0E7F0E08081826080838A
:100410008EE18093B30008950E94E1010E94EF01F4
:100420000E94F3010E94F901789486B186708230AF
:1004300019F0843059F0F9CF88B118B880910701CC
:100440008111F3CF81E080930B01EFCF8091070101
:10045000882359F384E080930B01E7CFF894FFCF12
:06046000063075000000EB
:00000001FF
